:10820000D891002081BD00002F0601006DBD000047
:108210006DBD00006DBD00006DBD00006DBD0000B6
:1082200000000000000000000000000019BF000076
:108230006DBD000000000000D9BE00006DBD000053
:1082400095C0000095C0000095C0000095C00000DA
:1082500095C0000095C0000095C0000095C00000CA
:1082600095C0000095C0000095C0000095C00000BA
:1082700095C0000095C0000095C0000095C00000AA
:1082800095C0000095C0000095C0000095C000009A
:1082900095C0000095C0000095C0000095C000008A
:1082A00095C0000095C0000095C0000095C000007A
:1082B00095C0000095C0000095C0000095C000006A
:1082C00095C0000095C0000095C0000095C000005A
:1082D00095C0000095C0000095C0000095C000004A
:1082E00095C0000095C0000095C0000095C000003A
:1082F00095C0000095C0000095C0000095C000002A
:1083000095C0000095C0000095C0000095C0000019
:1083100095C0000095C0000095C0000095C0000009
:1083200095C0000095C0000095C0000095C00000F9
:1083300095C0000095C0000095C0000095C00000E9
:1083400095C00000000000000000000000000000D8
:10835000000000000000000000000000000000001D
:10836000000000000000000000000000000000000D
:1083700000000000000000000000000000000000FD
:1083800000000000000000000000000000000000ED
:1083900000000000000000000000000000000000DD
:1083A00000000000000000000000000000000000CD
:1083B00000000000000000000000000000000000BD
:1083C00000000000000000000000000000000000AD
:1083D000000000000000000000000000000000009D
:1083E000000000000000000000000000000000008D
:1083F000000000000000000000000000000000007D
:10840000DEE61E284CBBCE8F025B00008C00000015
:1084100068B8000002000000008200000082000036
:10842000FFFF0291000000000000000000000000BB
:10843000000000000000000002000000DEE61E2830
:10844000EAAC45B8025B0000280000000310000001
:108450000100000001000000FF000000010000001A
:10846000D8910020DEE61E28EAAC45B8025B000089
:1084700028000000021000000000000001000000C1
:0C848000FF00000001000000DC91002063
:10848C0053B94AB9002908BF00281CBF4FF0FF316F
:10849C004FF0FF3000F00CB8ADF1080C6DE904CED4
:1084AC0000F008F8DDF804E0DDE9022304B07047C1
:1084BC00704700BF2DE9F04786468C460846089E5B
:1084CC00154674461946002B40F0C1808542B2FA1D
:1084DC0082F245D94AB1C2F1200300FA02FC954060
:1084EC0094402EFA03F343EA0C0C4FEA154EA8B253
:1084FC00230CBCFBFEF80EFB18CC08FB00F943EA7E
:10850C000C43994528D9EB1808F1FF3704D299454B
:10851C0002D9A8F102072B44A3EB0903A4B2B3FBC5
:10852C00FEFC0EFB1C330CFB00F044EA0344A0429F
:10853C0014D92C190CF1FF3304D2A04202D9ACF19E
:10854C0002032C44241A43EA07401EB1D4400023F2
:10855C0034607360BDE8F0874746DDE76346F1E7BA
:10856C0092BB431B01214FEA154EAFB2200CB3FB5B
:10857C00FEFC0EFB1C330CFB07F840EA034398454A
:10858C0061D9EB180CF1FF3004D2984502D9ACF14B
:10859C0002002B44A3EB0803A4B2B3FBFEFC0EFBBE
:1085AC001C330CFB07F744EA0344A7424DD92C19A2
:1085BC000CF1FF3304D2A74202D9ACF102032C44D4
:1085CC00E41B43EA0040C0E7C2F12003954094400D
:1085DC0020FA03F12EFA03F34FEA154E9040AFB296
:1085EC000343B1FBFEFC0EFB1C10190C0CFB07F833
:1085FC0041EA0041884522D969180CF1FF3004D2B8
:10860C00884502D9ACF102002944A1EB08019BB2C8
:10861C00B1FBFEFC0EFB1C110CFB07F743EA0143FC
:10862C009F420ED9EB180CF1FF3104D29F4202D9B4
:10863C00ACF102012B44DB1B41EA004193E760469D
:10864C00E3E76146F7E76046A4E76346B8E7834291
:10865C0006D916B9002108467CE7C6E900E0F9E71F
:10866C00B3FA83F78FB9834201D3724508D8BEEBB6
:10867C00020460EB030301209C461EB9002169E74C
:10868C003846FAE7C6E9004CF8E7C7F1200CBB40C6
:10869C000EFA07F522FA0CF42EFA0CF1BA401C4330
:1086AC0020FA0CF3B8404FEA144901431FFA84FE38
:1086BC00B3FBF9F809FB18300B0C08FB0EFA43EA74
:1086CC0000439A4540D9E31808F1FF3004D29A458B
:1086DC0002D9A8F102002344A3EB0A0389B2B3FB2D
:1086EC00F9F809FB183308FB0EFE41EA03418E45ED
:1086FC002CD9611808F1FF3304D28E4502D9A8F1A8
:10870C000203214443EA0040A1EB0E01A0FB0298B6
:10871C004145CE46434602D306D14D4504D20138DD
:10872C00B9EB020E68EB0403002EA7D0B5EB0E02DA
:10873C0061EB030101FA0CFC22FA07F3F9404CEA55
:10874C000303C6E9003199E74046C5E74346D9E73C
:10875C00F0B53E4B3E4A85B0C3F800264921C3F81C
:10876C0004263C48C3F80826C3F80C26C3F8102688
:10877C00C3F81426C3F81826C3F81C2607F036FED7
:10878C0007F029FA00F078F878B14FF05023D3F8BD
:10879C0000340BB1DB0708D549212F4807F026FE22
:1087AC0002F018FB2D4803F029F900F09FFA05465A
:1087BC0001A801F009F80446284600F0A7FA284B56
:1087CC001B68A34205D04521264807F00FFE07F091
:1087DC0004FB039A4921244807F008FE4921234849
:1087EC0007F004FE4FF420314FF4004004F058FE23
:1087FC00044620B145211E4807F0F8FDFEE7694606
:10880C009DF8080000F05CF8009B039D1D44019B43
:10881C001E8904F02DFEAF1901F01CFC01F0ECFBDD
:10882C0001F006FC84F30B8884F30A88AB5983F3BC
:10883C00088884F31488BFF36F8FBFF36F8F7B6846
:10884C00984745210B4807F0D1FDFEE70080015009
:10885C003546526E322E01004B2E0100E8280100E5
:10886C00080000206F2E0100922E0100C12E010085
:10887C00E62E0100192F010073B50F4C204609F0AC
:10888C00FDFCB8B12569A6682B681A2143F08063FA
:10889C002B6020463368094A98472046736801A923
:1088AC00984720B92B6801985840C0F38060003875
:1088BC0018BF012002B070BD282601001100010074
:1088CC00024608B538B105480023452107F08EFD56
:1088DC006FF0150008BD0860FCE700BF3C2F0100DD
:1088EC0021B1012906D06FF015007047044B53F8E5
:1088FC0030007047024B03EBC0035868704700BF51
:10890C00F02801002DE9F04FDFF8F891FDB03CA8FC
:10891C00DDE9888A17461D468A9CD9F8006004F068
:10892C00DDFDB8F1000F07D0BAF1000F04DD52469F
:10893C0041463CA804F0E0FD4FF000083B897A89E1
:10894C00D7F80CB013449B44C3453CD80CA93CA8A5
:10895C0004F0D8FD24B1202220460CA907F0C1FE5A
:10896C0000232A46009339464FF6FF7306A807F0FA
:10897C0033F9804620BB28460B9C00F0A1F98442B9
:10898C001ED84FF0FF34DFF880B1DFF880A10DF175
:10899C00120304AA05A906A807F06CF900280FDB3E
:1089AC0040F0A680059906A807F0B0F910BB4FF669
:1089BC00FF71BDF81200564A32F8023B8B4217D1B8
:1089CC00D9F8006098E0879BABEB080A9A4528BF62
:1089DC009A46414653462846869A07F015FD0028CC
:1089EC00EED1524686993CA804F086FDD044ABE704
:1089FC009842E1D1BDF81230102B17D0222B53D056
:108A0C00012BC4D1BDF81030202BD9D8284605999C
:108A1C001CAA07F0F9FC04460028D1D19DF81030AF
:108A2C00202B029321D94FF0FF34B0E7BDF8107022
:108A3C00202FC5D13B46284605991CAA07F0E4FC1B
:108A4C000028BDD100F052F93A4680461CA90CA86A
:108A5C0000F0E4F80746404600F058F9DBF8003027
:108A6C00BB42ADD14FF0010891E7DAF80030294F45
:108A7C000393039B9C42D6DA3CA804F02FFD7A6842
:108A8C003CA8126857F8081B04F036FD14A93CA842
:108A9C0004F038FD029A1CA914A807F0FBFD00286D
:108AAC003FF475AF0134E4E7631C3FF470AFDAF8C0
:108ABC000030A342B7DDBDF81030802B80D828469B
:108ACC0005991CAA07F0A0FC00287FF479AF00F0F0
:108ADC000DF9E4B207462021BDF810301CAA009411
:108AEC000CA800F019F80646384600F00FF99AE782
:108AFC00B8F1000F3FF464AF00F000F930467DB0E0
:108B0C00BDE8F08F040000200800002000290100BF
:108B1C00042E0100042901002DE9F04796B01646F9
:108B2C001D469DF87820384B074653F8321003EB5E
:108B3C00C2035B6801911868DFF8D08001443023D0
:108B4C0002AA01A8D8F8009007F0D9FA002851D150
:108B5C00DDE901431C44214606AB03AA01A807F03A
:108B6C00F6FA002846D1049A072A43D128490598D9
:108B7C0007F090FD00283DD1079A082A3AD12549E3
:108B8C00089807F087FDA8BB214602AA01A807F0A8
:108B9C00CAFA78BBDDE901A30AEB0302944229D19E
:108BAC00412B27D135443023294603AA02A802962B
:108BBC0007F0A5FAE0B9DDE9023213449D4217D360
:108BCC002A4602A906A807F0AFF888B92A4602A9D6
:108BDC000EA807F0A9F858B99AF80030042B07D161
:108BEC002021384606AB0AF1010204F091FC38B1A1
:108BFC00D8F8009000F082F8484616B0BDE8F0872F
:108C0C00054BD3F80090F5E704290100040000207F
:108C1C006B2F0100622F01000800002070B5094B7A
:108C2C0004461D680023934205D1074B1D6800F0D4
:108C3C0065F8284670BDE65CC85C8642F7D1013306
:108C4C00F1E700BF0400002008000020094A4000A2
:108C5C000B7852F820108B4209D0013052F82000CA
:108C6C00834214BF4FF0FF304FF4C06070474FF495
:108C7C00C06070470C2901001FB50F4B0C4613F850
:108C8C00300001F0ADFE50B92068102381686A46AF
:108C9C00103907F0B9FB28B1206807F0B4FB4FF08E
:108CAC00FF3006E010226846044907F0F3FC002868
:108CBC00F2D104B010BD00BF0C290100222E01001E
:108CCC0013B5044607F061F86A460146204606F0E3
:108CDC0069FF30B10448452107F088FB002002B041
:108CEC0010BD0098FBE700BF732F0100024B186802
:108CFC00421C1A60704700BFF0030020024A136840
:108D0C00013B1360704700BFF0030020034B1B684E
:108D1C00834201D007F061B8704700BFF003002018
:108D2C00034637B54FF40072084693F8B840134920
:108D3C000192620051F82250A8420ED1582101FB39
:108D4C00043201FB0434526A283401A901F070FE8C
:108D5C0008B9019B236003B030BD013251F82220C9
:108D6C00904208D1582101FB043201FB0433126DEF
:108D7C0003F15404E9E70120EDE700BF1C290100D1
:108D8C0070B590F8B850104E6D0056F8251004468A
:108D9C00FFF7C6FF98B9013556F825102046FFF7A6
:108DAC00BFFF054668B9582294F8B83002FB03435C
:108DBC00186A07F06BFBC4F8B400284670BD012597
:108DCC00FBE70925F9E700BF1C2901002DE9F04F4D
:108DDC00DFF830818BB0044690F8B8000E46D8F816
:108DEC000050FFF77DFD08A9C0B201F0F9FD28B1D4
:108DFC00FFF784FF28460BB0BDE8F08F94F8B890CD
:108E0C0031464846FFF76CFD2C2709A9C0B27743C1
:108E1C0001F0E6FDB0B14FF0580B2C220BFB09F31F
:108E2C0002FB0633E01805690899EA0620D51EB145
:108E3C002046089907F08AF8334B1D68089807F00C
:108E4C00E2FAD5E7099807F028FB0546099807F0E0
:108E5C00DAFA582394F8B82002FB037323445A1E01
:108E6C00033312F8011FA942D5D19342F9D1DEE7A1
:108E7C00E258264B9A423FD1C26803899B183BD2D9
:108E8C004289D21838D28B689A4235D240F60C639C
:108E9C001D4031D1FFF72AFF089B80460793FFF74F
:108EAC0025FF4FF4807109FB0B72CDE9035501913D
:108EBC001749029500918246079B94F8B8102244FA
:108ECC002846FFF71FFD05465046FFF71FFFFFF72B
:108EDC0015FF4046FFF71AFF0E4B1B68AB42ADD097
:108EEC006EB108980021826807F0B8FA0A4A452149
:108EFC000A4807F07BFA9FE7D8F80050ECE7084ADD
:108F0C00F5E700BF04000020000000203DB8F396F8
:108F1C009255002008000020B62F0100C02F010040
:108F2C00AE2F01007FB50D460021044690F8B82005
:108F3C002846CDE9021106F0FAFF58B358235A43DC
:108F4C00234EA358B34203D1204603AA06F097FF41
:108F5C00582294F8B83002FB0343DB6AB34204D1C5
:108F6C000121204602AA06F08AFFDDE90232934273
:108F7C0088BF0393039BAB6094F8B860154B9B5D63
:108F8C00BBB1012E1AD12046294600F0E7FF30462E
:108F9C0001F0E4FA104601A9FFF76EFE019805F105
:108FAC00080106F0FDFEAB680198039307F02BFA5D
:108FBC00E2E729462046039A00F0BAFE064B1A68EF
:108FCC00002A03DD5721054807F010FA04B070BDE4
:108FDC003DB8F39694560020C0480020E82F0100BD
:108FEC007FB51B4B90F8B82006460D4613F832009F
:108FFC0001A901F0F5FC40BB019806F0C6FED6F8BD
:10900C00B4100446284606F0F4FF0444019807F017
:10901C003DFA0646019807F040FA082201460DEB8E
:10902C00020007F069FB2B7921468DF80830019876
:10903C00334602AA07F0FDF9041E019818BF01245B
:10904C0007F0E1F9204604B070BD0124FAE700BF37
:10905C001C2901002DE9F84F884691469A460026B6
:10906C00DFF868B01A4C1B4D0B9B9E4201D30020BD
:10907C000FE00B9B40469F1BB7F5806F28BF4FF44A
:10908C008067124A3B4606EB0A0107F0BDF910B1A6
:10909C000120BDE8F88F0A993B465A46484671189C
:1090AC0007F0C7F90028F3D1C4F800563E44C4F8C1
:1090BC000456C4F80856C4F80C56C4F81056C4F834
:1090CC001456C4F81856C4F81C56CDE7F403002007
:1090DC00008001503546526E2DE9F04F4FF0000BD9
:1090EC0004460D4695B0DFF89892DFF898A2CDF8BB
:1090FC000CB0BBF1010F84F8B8B029D90026A24FEF
:10910C0017F8011B012918D13046FFF7E9FB0EA90E
:10911C00C0B201F065FC0346002840F0DE810E98D9
:10912C001946826807F09AF90346002840F0D58169
:10913C0032464521954807F059F9002E00F0CB81B5
:10914C00039B002B00F0448200202C265827D0E1F2
:10915C0004EB0B0292F8B960002E46D14FF0580880
:10916C0008FB0B4109EB0B324A6202F500520A650F
:10917C0031465846FFF7B4FB202394F8B810074645
:10918C0018FB01312C2303FB0611C0B2214401F062
:10919C0027FC48B15B463A464521CDE900607C4846
:1091AC0007F024F906F019FE01277EB12046FFF7DF
:1091BC00E7FD064660B900222046114606F03EFE49
:1091CC00C8B1572194F8B820724831E03E46CFE739
:1091DC004FF400725721704807F008F994F8B83032
:1091EC00012E234483F8B070E5D194F8B8300133E4
:1091FC005FFA83FB7DE7204606F010FF002807DDB1
:10920C00012294F8B8300AF833200AEBC3035860F3
:10921C00204606F001FF68B10AA806F07FFE014661
:10922C00204600F079FB60B1572194F8B8205B48D8
:10923C0007F0DCF8012294F8B830234483F8B0200E
:10924C00D3E70AA806F073FE80F001010AAA2046B3
:10925C00C9B206F0F3FD02460028B2D10AA806F006
:10926C0066FE064600284CD194F8B8305BBB20460D
:10927C000AA9FFF757FE94F8B8009DF82F30221872
:10928C0082F8B030033B012B08D800F09FFB28B1CB
:10929C00FF2294F8B830234483F8B0209DF82F3087
:1092AC0094F8B800023B022B1ED800F079FBD8B121
:1092BC00FF2294F8B830234483F8B0204521384875
:1092CC0007F094F8FEE794F8B020042A04BF0122BA
:1092DC0084F8B020012BCAD094F8B130042BC6D13D
:1092EC00012384F8B130C2E794F8B830234493F8E2
:1092FC00B030FF2BE2D0002120460AAA06F09EFDDA
:10930C0098E79DF82FB0BBF1010F40F0CB805821AE
:10931C0094F8B830234F0792FA5401FB0343224AC6
:10932C00D96AD3F84C80914279D1998E0423404666
:10933C0007AA194407F068F8C0B34FF0050894F871
:10934C00B830234483F8B08094F8B83073B1E21885
:10935C0092F8B020012A3FF448AF042A0DD094F8BB
:10936C00B020042A02D1012284F8B020234493F8BF
:10937C00B030023B022B3FF638AF039635E700BF07
:10938C00F4070020F44700209256002034310100ED
:10939C0017300100A630010064300100D23001000A
:1093AC00FC300100945600203DB8F39694F8B800B8
:1093BC00B04B012851D11A7802B918701A5C0AB94D
:1093CC0001221A540021FFF78BFA0EA9C0B201F04A
:1093DC0007FB83460028B0D10799A64BA1F5E032D4
:1093EC00B2F5A03F3FD894F8B8204FF00108002AFE
:1093FC00A5D007F802800E9A5268B2F5004F02D041
:10940C00B2F5E03F03D1012194F8B820B95494F897
:10941C00B8200221012A41D119700221995494F8E3
:10942C00B80004F047F9831E022B804687D8FFF75B
:10943C005DFC012107462046FFF7C8FC83463846F1
:10944C00FFF764FC8C4B1B689B453FF478AF8B4B50
:10945C001B689B457FF471AF1DE05A78024308BF2F
:10946C0083F801B0AAE7A1F50042B2F5A03F0AD8F3
:10947C004521834806F0BAFF59464046D8F80820E3
:10948C0006F0ECFF59E70E984268914203D38068CE
:10949C0002449142AFD94FF0010850E7002ABCD1E9
:1094AC005970BAE7FFF722FC012107462046FFF767
:1094BC008DFC80463846FFF729FC6F4B1B6898459E
:1094CC0018BF052294F8B83008BF9DF82F2023440C
:1094DC0083F8B02038E7012612E632464521694868
:1094EC0006F084FF29E6231893F8B92032B1013035
:1094FC00C0B2012884F8B800F5D969E093F8B080BF
:10950C0008F0FB08B8F1010818BF4FF001084146FC
:10951C00FFF7E6F905A9C0B201F062FA002840F0A5
:10952C008B80012306FB08F894F8B810059A17FBFA
:10953C0001810093214440230EA806F04DFB804688
:10954C0000287BD100230DF1120206A90EA806F00B
:10955C0091FB00283CDB05987DD1BDF812300C2B1B
:10956C0077D1069907AA06F04FFF00287CD19DF809
:10957C001C30012B7BD8E21892F8B0207B43023AC6
:10958C00022A8CBF0022012206FB02332344197DE0
:10959C009DF820209142D5D80AD3597D9DF82120E1
:1095AC009142CFD804D3DA8ABDF822309A42C9D27C
:1095BC0094F8B8300598234493F8B020012A39D098
:1095CC00023A012A02D8012283F8B02006F01BFFD0
:1095DC000022FF26012A84F8B82057D90023264EF2
:1095EC00DFF8A480254F0E93012B84F8B83040F29D
:1095FC0096800E9B022B01D006F0EFFB94F8B9304D
:10960C00002B40F0D580582684F8B83006FB034375
:10961C00186A06F0C5FA287194F8B83006FB0343B3
:10962C001B6A5B68AB6094F8B83003FB06462E608F
:10963C00114B90E00422C7E70598C7E7059806F0A0
:10964C00E2FEB8F1030FC3D140F20113A4F8B0301D
:10965C00BEE74FF00308059806F0D5FEB8F1000FF1
:10966C00EFD194F8B80042E74FF00108F3E74FF060
:10967C000708F0E7925600200800002000000020A8
:10968C00083101005F31010004000020A11891F89D
:10969C00B930002B3ED10AA806F040FC91F8B0304E
:1096AC00042B8DF82F3005D8012B09D825D081F843
:1096BC00B06022E0052BFAD1104600F087F912E0D9
:1096CC0020460AA9FFF72EFC94F8B800231893F84B
:1096DC00B030DA1E012A0ED800F078F920B994F8CF
:1096EC00B80000F05DF940B1FF2294F8B830234483
:1096FC0083F8B02001E0022BF1D094F8B830234469
:10970C0093F8B030FF2B05D145212D4806F06EFEA5
:10971C0006F063FB94F8B8200132D2B25AE7234426
:10972C0093F8B9208DF81C209DF81C1001F0FF0255
:10973C0039B10E9B01330E9394F8B8300133DBB280
:10974C0052E793F8B030012B07D01146204606F0B3
:10975C0075FB10B11B4B1D681AE094F8B830012B47
:10976C00E7D0FFF7C3FA002182462046FFF72EFB15
:10977C0081465046FFF7CAFA3368994506D1D8F8A6
:10978C000030994502D03B689945D2D1D8F80050A9
:10979C00102200210AA806F0AFFF204606F030FB8D
:1097AC00FFF7ACFA284615B0BDE8F08F01232AE785
:1097BC0094F8BA30002BF9D0022384F8B83037E78C
:1097CC00FC3001000400002070B50B4E0446BC2296
:1097DC000021304606F090FFFFF788FA2146054637
:1097EC003046FFF779FC04462846FFF78FFAFFF75F
:1097FC0085FA204670BD00BF044800202DE9F843CF
:10980C002E4F3B7833BB3C7A24BB2D4DDFF8B48014
:10981C00012C85F8B84015D8582606FB045208EBE5
:10982C00043300215362204603F500531365FFF700
:10983C0057F895F8B810C0B206FB0151203101F071
:10984C00CFF850B11E4806F0DBFABC2200211C48B0
:10985C0006F052FF1948BDE8F88301212046FFF7B6
:10986C003FF895F8B810C0B206FB01514C3101F02D
:10987C00B7F80028E6D195F8B860DFF84C90760080
:10988C00284659F82610FFF74BFA88B9013659F8D3
:10989C0026100B48FFF744FA50B9094806F0BEFBF6
:1098AC000028C1BF012307F8343007EBC404606003
:1098BC0095F8B8400134E4B2AAE700BFF4470020A1
:1098CC0004480020F40700201C29010073B515463C
:1098DC0090F8B8600F4B0C4603EBC603694658680A
:1098EC0007F034FFE979012903D03246204607F00E
:1098FC0041FF9DF80330012B02D1204607F019FFE0
:10990C00A968204606F05AFA204603F05DFE0020B6
:10991C0002B070BD2C29010073B50D46064600F04F
:10992C004DF90446E86078B3022832D196F8B82095
:10993C001A4B01A913F8320001F052F858BB2A4611
:10994C003146019800F0D2F80446D0B9019807F0DE
:10995C0077FE012301460DF10302019806F054FD38
:10996C000446A0B9012201980DF1030107F07CFE19
:10997C0010B101238DF803309DF8033003F00F0371
:10998C00EB71019806F03FFD204602B070BD01243A
:10999C00F7E70724F8E70124F6E700BF2C290100BC
:1099AC0013B5094B01A913F8300001F019F848B9A7
:1099BC00019807F0F0FE0446019806F024FD2046BD
:1099CC0002B010BD0124FAE72C2901001FB50F4B82
:1099DC0001A913F8300001F003F8A8B9019802A905
:1099EC0003F012FE044668B99DF80B30032B03D12B
:1099FC00019807F09EFE0446019806F004FD2046EF
:109A0C0004B010BD0124F7E70124F8E72C2901006C
:109A1C002DE9F74306460C4690461D460BB9002728
:109A2C002FE0184606F083FA0028F8D1694696F81C
:109A3C00B800FFF721F9009838B90124009806F016
:109A4C00E2FC204603B0BDE8F08301A906F0A8F9BA
:109A5C000028F2D1009806F0D6FC3046019906F0A9
:109A6C00B9FA582296F8B83002FB03635B6A5F6858
:109A7C006B79012B23D1002CD1D12B68834298BF59
:109A8C000027214696F8B800FEF72AFF6946C0B2B7
:109A9C0000F0A6FF0028D0D120234246394600987A
:109AAC0006F0B2FC04460028C7D1002DC6D0D8F869
:109ABC0000400D4BE41A18BF4FF0FF34BEE7022BE9
:109ACC00ADD12B68012B05D98342A8D8B4FA84F404
:109ADC006409A4E7A3D1002CD3D0012C9FD12C79FD
:109AEC00023C18BF01249AE73DB8F3962DE9F04FDC
:109AFC000C460746014685B094F8B8001646FFF7A9
:109B0C00A5F8051E53DB3846D4F8B44006F03DF9F1
:109B1C005FFA84F94FF0000A4FF0010B4FF0FF345D
:109B2C006B1E09FB0308A5B9BAF1010F03DD452132
:109B3C00214806F05BFC631C07D0B4F5007F2ADAE1
:109B4C0040F2011301343460B380284605B0BDE8FF
:109B5C00F08F6B1E00934146012338460DF10F0226
:109B6C0006F052FC031E019323DB012238460DF153
:109B7C000F0107F079FD019B40B15B4501D00AF163
:109B8C00010A9B46009DA8EB0908CCE7B4F1FF3F06
:109B9C0008BF2C46F5E70223A4F50074737163101B
:109BAC0004F001040133013433603471CDE707252F
:109BBC00CBE70125C9E700BF9631010030B590F81D
:109BCC00B8402C4D89B0640055F8240004A907F066
:109BDC00BDFD9DF81020012A42D0274B2749032AAE
:109BEC0008BF0B469DF81320492102929DF81220C4
:109BFC00234801929DF8112001340092214A06F06D
:109C0C00F5FB55F8240006A907F0A0FD9DF81820D7
:109C1C00012A27D0184B1949032A08BF0B469DF877
:109C2C001B20492102929DF81A20154801929DF89B
:109C3C0019200092144A06F0D9FB9DF81030012B24
:109C4C0012D19DF81230032B0ED19DF81830012B38
:109C5C000AD00E48492106F0C9FB022009B030BDDC
:109C6C000B4BBFE70A4BDAE70A48492106F0BEFB6B
:109C7C000020F3E73C290100B9310100C231010099
:109C8C00D6310100C8310100173201002732010022
:109C9C00BD3101004632010070B54B6814461E4AB6
:109CAC0003F0FF23934206460D4686B02FD10B6876
:109CBC00012B2CD1204604A903F0A6FC9DF8102002
:109CCC00012A26D0154B1649032A08BF0B469DF8CE
:109CDC001320492102929DF81220124801929DF8FE
:109CEC0011200092104A06F081FB9DF81030032BD6
:109CFC000DD12146304606F029F9204607F019FD12
:109D0C002046A96806F05AF8204603F05DFC06B020
:109D1C0070BD064BDBE700BF00010004B931010048
:109D2C00C2310100D631010017320100BD310100F2
:109D3C002DE9F04F04461646582789B00D46824847
:109D4C00492106F053FB3146204606F043F994F8BE
:109D5C00B830834607FB03435B6A28465E6806F00F
:109D6C00E6F810B3D4F8B40006F00AF894F8B8305A
:109D7C0007FB03439F6A0023013F3344834201D214
:109D8C00013FFAE7BB4510D35721704806F02EFB74
:109D9C0007FB06F357210BFB06626D4806F026FB0A
:109DAC000123EB7109B0BDE8F08F94F8B830DFF8FF
:109DBC00A4815F0018F8330006A9013700F010FEEB
:109DCC0007A918F8270000F00BFE29462046079A31
:109DDC00FFF762FF6B79012B50D15F46DFF878A15A
:109DEC0046E02A68C2F101035B449F423FD85821E8
:109DFC0094F8B830012A01FB03435B6A196853F8E5
:109E0C00370003EBC70353F8083CA0EB0109A3EBA5
:109E1C000103049311D1079B0393EB68022B08D029
:109E2C004146204606F092F82A4641462046FFF766
:109E3C004DFD2046039906F089F8324649464046C6
:109E4C0006F082F8049B424641462046CDE9009636
:109E5C00FFF700F929462046FFF7C2F82B680133BB
:109E6C002B6020B1DAF800300133CAF80030013F22
:109E7C00DDF81880002FB4D101232B6002230127B9
:109E8C006B71BB45DDF8189006D2484606F0BBFA5C
:109E9C00079806F0B8FA85E72B689F4252D35823EF
:109EAC0094F8B820DDF81CA003FB0242516AFB00B9
:109EBC0051F83700126D04900868083BC95803909C
:109ECC00D0581368A0EB03082B79012B38D1039BD6
:109EDC003246C91A4846059106F036F805994346AC
:109EEC004A460091204651460196FFF7B3F82946A1
:109EFC002046FFF775F802232B7118B1164A136828
:109F0C000133136032464146504606F01DF8DDE938
:109F1C00032349469B1A20465246CDE90086FFF79B
:109F2C0099F829462046FFF75BF82B6801332B6024
:109F3C0001232B7130B1084A13680133136001E01F
:109F4C00022BDFD001379CE75D3201008632010025
:109F5C00B53201003C290100C04800207FB5044601
:109F6C0049211E4806F042FA5822002594F8B830D0
:109F7C0002A902FB03431B6D07205E6800F030FD55
:109F8C0094F8B820164B03A903EBC203187900F020
:109F9C0027FD02980021826805F0D6FF029A0399EA
:109FAC0093682046019300952B46FFF753F80399CD
:109FBC00204605F0CBFFDDE902309A688368324415
:109FCC009A4228BF1A46294605F0BEFF029806F0B1
:109FDC001AFA039806F017FA04B070BDE6320100C5
:109FEC004C2901000A4619B1024B00211B68184785
:109FFC00704700BF0C000020BFF36F8F72B60023B8
:10A00C004FF0FF30094A03F120010133102B42F8C5
:10A01C002100F8D100234FF0FF30044A03F1600116
:10A02C000133102B42F82100F8D1704700E100E019
:10A03C00002318460649D1F89020C2F30722934218
:10A04C0000DB7047C1F89830C1F8A0000133F6E787
:10A05C0000ED00E02DE9F8434FF0FF3501274FF0FC
:10A06C000008204BDFF880905F60C3F84853C3F8BA
:10A07C00085303F580535F60C3F84853C3F8085383
:10A08C0059F8044B002644F30730C4F8085301F088
:10A09C005BFF80226760C4F84C61D4F84C31C4F883
:10A0AC001061D4F81031C4F844613146D4F844310D
:10A0BC00A018C4F8006506F01FFB8022314604F599
:10A0CC00C07006F019FBB8F1000F08D0074BC3F8AD
:10A0DC0008554FF05023C3F80853BDE8F8834FF0F0
:10A0EC000108CDE7004001506029010000700150CB
:10A0FC00014B1B68184700BF1000002007B50B462A
:10A10C00002102460091034800F006F803B05DF808
:10A11C0004FB00BFFDA000002DE9F04F82464FF07C
:10A12C0000098DB01D46531E01910393039B587873
:10A13C005C1C252819D100204FF0FF381E464446E0
:10A14C0003460236029031780396392955D81F29D7
:10A15C0014D8002900F0EF8101992520D0470199EE
:10A16C003078D04709F10209E0E7002800F0E381DC
:10A17C000199D04709F101090394D7E7A1F1200215
:10A18C00192AE9D801A757F822F000BF01A2000054
:10A19C0065A1000065A1000001A2000065A10000FE
:10A1AC0081A2000065A1000065A1000065A100006E
:10A1BC0065A10000CDA2000001A2000065A1000075
:10A1CC00E1A200008DA2000065A100009BA200008E
:10A1DC00BBA20000BBA20000BBA20000BBA20000FF
:10A1EC00BBA20000BBA20000BBA20000BBA20000EF
:10A1FC00BBA2000008460136A5E7582900F0EB8009
:10A20C00A1F16302D7B2172FA6D8172AA4D801A799
:10A21C0057F822F089A4000007A3000065A10000F4
:10A22C0065A1000065A10000E7A2000007A30000E3
:10A23C0065A1000065A10000E7A2000065A1000077
:10A24C0065A1000065A10000BDA3000065A1000090
:10A25C0065A100005DA4000065A1000007A300003B
:10A26C0065A1000065A10000BDA3000065A1000070
:10A27C00E7A2000025200199D04709F1010955E713
:10A28C00029A4FF0000802F0FE020292B3E7002C93
:10A29C000DDAB8F1000F0DDA029A002A00F04381B2
:10A2AC000A2224EAE47402FB0414303CA3E7B8F15C
:10A2BC00000FF5DB0A2202FB0812A2F130089AE724
:10A2CC00B8F1000F55F8042B80F22F81002A80F290
:10A2DC002E815442022202928DE7682903D1682B09
:10A2EC0006D1482387E76C2902D16C2B00F0218121
:10A2FC00002B7FF431AF0B467DE77A2B06D1752905
:10A30C0055F8046B14D14FF0000B0CE06C2BF6D00D
:10A31C004C2BF4D1073525F00703752903F10805FB
:10A32C00D3E9006B06D120283BD1854F013C09E0D5
:10A33C004FEAE67BBBF1000FF5DA7642814F6BEB0F
:10A34C004B0B013C0DF12D03059300230493304678
:10A35C0059460A220023FEF793F8059BB446303287
:10A36C0003F8012D5A460593049BBCF10A0F8B464A
:10A37C0072F1000203F1FF3106460491E7D2C3F1FA
:10A38C00010B30330DEB0306B8F1000FA6F10406F8
:10A39C006DDA029BD9077DD4A8EB0B03A4EB0B045D
:10A3AC0013E02B280ABF684F684F04F1FF34C9E74C
:10A3BC0070290FD155F8042B0023FAB96FF0040360
:10A3CC004FF0050B614F624E053C029A920770D418
:10A3DC00A04666E078216C2B03D1002355F8042BA2
:10A3EC0008E04C2BF9D1073525F007031D465B68B7
:10A3FC0055F8082B232825D1880621D5554F023C2A
:10A40C00002601F06001A1F1390B0DF12D0E02F0C7
:10A41C000F01092988BF594430310EF8011D102A4B
:10A42C004FEA121141EA03714FEA131C73F1000356
:10A43C0006F1FF3008D2C6F1010B06F13003A1E79B
:10A44C00454FDCE7414FDBE706460A466346DEE74D
:10A45C0055F8046B304606F016F9B8F1000F834638
:10A46C0002DB4045A8BFC3464FF00008374FA8EBAE
:10A47C000B03002B92DDA4EB0804A6E755F8043B74
:10A48C004FF0010B8DF81830304F4FF0FF33013C7B
:10A49C0006AE9AE7A046EAE7029320200199D0473E
:10A4AC00029BB8F10108F7D524EAE472013C91440F
:10A4BC00A41AB84606E0049302920199D047029A76
:10A4CC00049B9046424612F8010B0028F3D11A4621
:10A4DC00013A15D5002BACBFC7EB03077F425B4697
:10A4EC00013B15D5BBF1000FA8BF5F4426464F4476
:10A4FC00013E14D5002CA8BF3F1907EB080915E63F
:10A50C000493029230200199D047049B029ADFE712
:10A51C000293019916F8010BD047029BE0E70199D1
:10A52C002020D047E4E70122D5E6904663E61446A6
:10A53C0061E64C235FE648460DB0BDE8F08F00BFE6
:10A54C006C3301006A3301006E3301005437010093
:10A55C00763301007033010073330100044608B5F3
:10A56C00EFF31183202383F31288BFF36F8F02F074
:10A57C007FFF204601F02EFC024805F048FE06F055
:10A58C0066F8FCE77C3301002DE9F043079D15B913
:10A59C001560002012E00324B5FBF4F404EB44072F
:10A5AC00BD4218BF0134B4F1804F09D2A40001346C
:10A5BC008C4200D838B96FF00B001460BDE8F08302
:10A5CC004FF0FF34F7E704460021DFF8B4E0B9425E
:10A5DC0003F1030C04F104062BD3A942274623D222
:10A5EC0001F1010CAC451F7828BF002324494FEA28
:10A5FC00A70E38BF5B7811F80EE0AC4584F800E08C
:10A60C0001EB131E2EBF3D239B0003F03C034FEACE
:10A61C00071738BFCB5C07F030071EF80770A37024
:10A62C003D2367703746E3700023381A10603B7087
:10A63C00AFE71CF8034C1CF8023C4FEAA4091EF8C7
:10A64C00099024011CF8018C04F0300406F8049CD9
:10A65C000EEB131919F804409B0006F8034C03F099
:10A66C003C030EEB9814E35C08F03F0806F8023C40
:10A67C001EF80830344606F8013C03316346A6E761
:10A68C00253401002DE9F04300273C463D46DDF81A
:10A69C001CE0DFF8288175451FD3E4BB0020146053
:10A6AC00BDE8F0830136764533D013F806C0BCF113
:10A6BC00200FF7D0AEEB0609B9F1010FA6EB05059B
:10A6CC000DD0BCF10D0F0AD103EB060999F80190DE
:10A6DC00B9F10A0F6ED1751CDDE72E46E3E7BCF12C
:10A6EC000A0FF8D02DB9BCF13D0F05D10137022F5F
:10A6FC000DD96FF01500D3E71CF0800FF9D118F8C5
:10A70C000C507F2DF5D03F2D01D8002FF1D1013405
:10A71C00E1E73546C1E74FF0060C04F00706E40804
:10A72C000CFB06F60CFB04F40736E41B04EBD60416
:10A73C0070B18C420CD80027014603263C46DFF84A
:10A74C007CE0DFF87C801D449D4205D10C1AA5E706
:10A75C006FF00B001460A3E713F8019BA9F10A0C2E
:10A76C005FFA8CFCBCF1160F04D848FA0CFC1CF0F8
:10A77C00010FE9D01EF809C00134BCF1400F08BF2D
:10A78C00013E0CF03F0C042C4CEA8717DCD17EB157
:10A79C003C0C012E0C7002D101310024D4E7022EA6
:10A7AC004FEA17244C7016BF8F7002310331F4E757
:10A7BC003446C9E7002DA2D09BE700BFA5330100AA
:10A7CC00F6FFBFFF2DE9F047058B0446280790469E
:10A7DC0011D4022905F0070540F0CC80204605F085
:10A7EC002DFD78B10138218B042811D8DFE800F059
:10A7FC00C2106D85950001290CBF45F0100545F080
:10A80C002005258388F31188BFF36F8FBDE8F0878F
:10A81C0001F0070AAA4500F0A5800027B9463E467C
:10A82C00A368002B00F0BC8041F00801218388F361
:10A83C001188BFF36F8FA168002900F0BA800D68F2
:10A84C00002900F0B680334652462046D1F80480E9
:10A85C00C047002D76D02B6829461D46F0E701F045
:10A86C0007035A1F012A1BD8002221F00701062BCF
:10A87C00276889B2C4E9002209D13B4603E0628B08
:10A88C00013262831B68002BF9D141F00201204692
:10A89C00218305F0D3FC00287AD041F0200176E02A
:10A8AC00042B0AD121F0070189B22046218305F03F
:10A8BC00C5FC10B141F020012183218B01F0070A66
:10A8CC00AA454FD00027B946AAE7236921F0070112
:10A8DC0041F00601062DD3F8009021832DD1B9F15A
:10A8EC00000F3FD041F00801218388F31188BFF39A
:10A8FC006F8F20463949C84729E021F007012369A9
:10A90C0041F0040189B2042DD3F804902183E6D0E0
:10A91C0000274FF0040A3E4682E721F00701236925
:10A92C0041F0050189B2052DD3F808902183D6D0CA
:10A93C0000274FF0050A3E4672E700274FF0060A43
:10A94C003E466DE72B4687E7B9F1000FD1D1EFF307
:10A95C001188202383F31288BFF36F8F238B23F08E
:10A96C0008032383258BEA062ED525F010032383B9
:10A97C0005F007056669218B002EBFF670AF00232A
:10A98C002768C4E9003321F0070141F0010121835C
:10A99C00218B4FF0000901F0070AAA457FF440AF64
:10A9AC00002F9CD041F00801218388F31188BFF35C
:10A9BC006F8F002FC8D03D6839463346524620462B
:10A9CC0005F068FC2F46F4E7AB067FF51BAF25F0CE
:10A9DC002003238305F0070500E700BFCD0201002B
:10A9EC0070B5114B0D461C68DCB1104B1968002377
:10A9FC008B4202DB6FF0010070BD224612F8106B27
:10AA0C00864202D014460133F2E7E06810B96FF0C9
:10AA1C001200F1E707F032FC0028F8D000202C607F
:10AA2C00EAE76FF00C00E7E714000020682901004A
:10AA3C0070B588B005460C46C0B269461646FFF79D
:10AA4C00CFFF00281BDB0098C8B143682268029333
:10AA5C0083680195CDE903360023CDE906230593E0
:10AA6C00C56805F0D0FC6DB12846084901AA06F06E
:10AA7C0084FA079808B9059B236008B070BD6FF085
:10AA8C001500FAE76FF01200F7E700BFB5040100FC
:10AA9C0008B5054805F0BBFB044805F0B8FBBDE85C
:10AAAC000840034805F0B3BB65340100963401003F
:10AABC00C9340100014804F0BBBE00BFBC2A010030
:10AACC0038B5044618B90F4B0F485B689847616856
:10AADC00B1F5683F10D0B1F5680F0DD00B4DA94200
:10AAEC000AD011F46861206807D00146084807F0C5
:10AAFC0020FC00232360656038BD142205F0FCFDAA
:10AB0C00F9E700BF6C010020F73401002C5F5CA951
:10AB1C00C44D002008B500B34368B3F5683F0CD1B1
:10AB2C0001220368D3E8EF1F002903D1C3E8E02F0B
:10AB3C000028F7D10DD1002008BD094A93420AD054
:10AB4C0000684FF0FF324FF0FF3304F057F8002845
:10AB5C00F1D00448F0E70448EEE76FF4E040EBE78F
:10AB6C002C5F5CA9E98FFFFFEA8FFFFF08B5B8B136
:10AB7C004368B3F5683F0CD100220368D3E8EF1F9C
:10AB8C00012903D1C3E8E02F0028F7D10BD1002015
:10AB9C0008BD074A934208D0006804F0A7F8F6E70E
:10ABAC006FF4E040F4E70348F2E70348F0E700BF36
:10ABBC002C5F5CA9E98FFFFFEA8FFFFF10B50446FD
:10ABCC0018B91D4B1D485B6898476368B3F5683F1F
:10ABDC002FD0B3F5680F2CD0194A934219D12368A2
:10ABEC0003BB4FF0FF324FF0FF332146154803F003
:10ABFC00D7FF08B923681BB90F4B13485B689847FC
:10AC0C0014220021206805F077FD4FF4686363601F
:10AC1C0008E0B3F5683F0DD83A2B03D040F6BA6282
:10AC2C009342DED1206807F0BCFB636843F03A0323
:10AC3C00636010BD054AF3E76C010020F734010096
:10AC4C002C5F5CA9C44D00201D3501003A00003A70
:10AC5C0008B5064940231422054807F05CFBBDE803
:10AC6C0008400449044804F055BE00BFC448002005
:10AC7C00C44D0020C42A0100D82A0100F7B5254E86
:10AC8C0030688368DB6B03B1984730688368DB6A94
:10AC9C00002B31D1204C214D306883681B69002B6F
:10ACAC002DD001220DF107019847012827D12368E7
:10ACBC0043B92B682BB369681A688B422A6000D1A0
:10ACCC006A602360164A9DF8070011887F2904D812
:10ACDC0023684F1C0B44178018720A28DCD1002003
:10ACEC0023681188186059600E494D6875B9C1E91F
:10ACFC00003310802060CEE798470028CAD103B0FB
:10AD0C00F0BD4521084805F071FBF8E72B604B605E
:10AD1C00EFE700BF38520020E04D0020F04D00203E
:10AD2C0090550020E84D00204A35010010B5044B29
:10AD3C00044618688368E1B25B689847204610BDEA
:10AD4C0038520020F8B5054616460846EFF3118731
:10AD5C00202383F31288BFF36F8F1B490B684BB111
:10AD6C001A4C62689A4205D000221A60626862B975
:10AD7C00C4E90033164A136853B987F31188BFF33B
:10AD8C006F8F18460B603360F8BD13606360F1E79A
:10AD9C00D2F804C01C686345146008BF546087F384
:10ADAC001188BFF36F8F5C680B60A042D8BF00F1B5
:10ADBC00FF3403F108012246284605F092FC0023DB
:10ADCC00601C2B550123DEE7E44D0020F04D0020E4
:10ADDC00E84D0020002313B51C462049204AC1E948
:10ADEC000033C2E900331F4A4868146020BBC1E934
:10ADFC0000220133082B02F18802F5D11A4C1B48B2
:10AE0C00206007F03BFA28B32068836823B11B6CE1
:10AE1C0013B100221649984720688368DB6A0BB18E
:10AE2C00984760B1206883681B69002BFAD0012217
:10AE3C000DF107019847F4E702604A60D9E7002258
:10AE4C000C4B20681A8083681B6A03B1984700205A
:10AE5C0002B010BD4FF0FF30FAE700BFF04D0020FC
:10AE6C00E84D0020F84D00203852002050260100FB
:10AE7C0089AC00009055002041F204432DE9F043C9
:10AE8C00ADF21C4DADF8083040F606130025ADF8B8
:10AE9C000C30DFF81091444BD9F800101B68434E6E
:10AEAC004D70A3EB06080B7828465A1C62F302037C
:10AEBC000B7098FA98F34B808B8808225BBA8B80C6
:10AECC0005F08FF931464246ADF8100005F089F9CE
:10AEDC0002271FFA88F440BA04F10A035BBA022273
:10AEEC00ADF810000DF1120106A8ADF8123005F006
:10AEFC00F8FB0822D9F800100DF11A00ADF8127009
:10AF0C0005F0EFFBBDF8120006AB083080B23146FD
:10AF1C004246ADF81200184405F0E3FBBDF81230C0
:10AF2C003A461C44A0B22C4606ABADF8120004A95C
:10AF3C00184405F0D6FBBDF8123040F249213B44D1
:10AF4C009BB2ADF81230009305AA06AB73A8FFF7BD
:10AF5C001BFB059B164E174FADF81230BDF8123087
:10AF6C00A34203DC0DF21C4DBDE8F08333680221D3
:10AF7C005B68A4B903A89847BDF8125033682D1B21
:10AF8C007C2DA8BF7C2573AA101929465B689847AD
:10AF9C003368012138465B682C449847DEE702A8E9
:10AFAC00E9E700BF9C520020545200209656002026
:10AFBC00A05200205337010038B505460A4C0A212F
:10AFCC00204607F025F902222046084907F013F91C
:10AFDC002946204607F0ECF820460A2107F020F914
:10AFEC00BDE83840FFF748BF5452002088350100B7
:10AFFC0073B583680C469A420646114613D29442A6
:10B00C0013DC6A4604F0CEFD68B9DDE900351D4459
:10B01C002A1B2146304605F021FA024640B1452153
:10B02C00044805F0E3F96FF01504204602B070BD3A
:10B03C002C46FAE78B3501002DE9F0474FF0FF3431
:10B04C00D4B00B46059406940794012100240246C3
:10B05C00CDE90144009130A80421CDE9084406F063
:10B06C009BFD2146402220A805F046FB8C4B03217A
:10B07C001C93052304221D938A4B0DF11808CDE96E
:10B08C001E38894B89482193894B05AE2393894BF4
:10B09C0007AD2693884BCDE92B01CDE92835CDE9B9
:10B0AC002D360AAC279109AB1CA930A82292249406
:10B0BC0005F05BFA20B303240A21804807F0A8F8B6
:10B0CC007F4902227D4807F096F821467B4807F01D
:10B0DC006FF84CB975490322784807F08CF8794B16
:10B0EC007648196807F06EF80A21744807F098F84A
:10B0FC00FFF7C2FE089805F086F954B0BDE8F0875A
:10B10C003368D4E900745A1CD5D0002FD3D06E4AC2
:10B11C0033B9D8F80010B1F1FF3F18BF0B461360DC
:10B12C00106804F030FD08A9C0B2FFF759FC0028E4
:10B13C00C1D13368634E002B4ED1DDF820803360D3
:10B14C004046D8F8089004F020FE604A014640467C
:10B15C0004F028FD28B145215D4805F047F901248C
:10B16C00AAE72B684B45A6D85A4A10605A4A136076
:10B17C003268584D224429680898013AFFF738FF85
:10B18C000028286097DB089805F080F9B4FBF0F3F1
:10B19C0003FB1040DFF840913368C5B2651B1C44BB
:10B1AC00D9F800309C4238BF00205FFA80FA08982A
:10B1BC0005F06CF9012805D9089805F067F90138F4
:10B1CC0007424DD12B463A463168089805F031F9C3
:10B1DC0000287FF470AF30E03268934201D0002435
:10B1EC006AE73D4A234412689342C1D963E7A845F4
:10B1FC00089888BF5FFA85F805F04FF940220146A0
:10B20C000CA805F079FA424639460CA805F069FA03
:10B21C004346316808980CAA05F00BF9044600283F
:10B22C007FF44AAF3368474443443360A5EB0805C9
:10B23C00089805F02BF9A842D9D9BAF1000F12D110
:10B24C003368D9F8002053442B4493423360C6D161
:10B25C001E4B08981A681146FFF7CAFEC40F2BE75D
:10B26C004FF04008E4E7089805F017F9082201466A
:10B27C000CA805F041FA524679190CA805F031FAE0
:10B28C00089F316838466C1805F000F921460346D2
:10B29C000CAA384605F0CDF800287FF40CAFCFE7A8
:10B2AC0021320100931E0100AD350100B6350100BD
:10B2BC009D1E0100B2350100991E01005452002060
:10B2CC00883501004C52002050520020445200207E
:10B2DC00732F0100405200203C520020F0B50C6846
:10B2EC00164F85B002380D46C4F580610090144BA2
:10B2FC00381903AA0131FFF7C5F90446D0B92B68F8
:10B30C00039A1344022B2B6011D93E88023B76BA68
:10B31C00B6B29E420BD13246B91C04F062FF30B972
:10B32C00022E04D92B689A1E2A60FC540124204654
:10B33C0005B0F0BD4FF0FF34F9E700BF3F580020D7
:10B34C00425C00202DE9F04F0121ABB09F4806F084
:10B35C005FFF06229E499D4806F04DFF05219B4844
:10B36C0006F052FF4FF00009484602F0A3F9002600
:10B37C008046DFF860B2984B314648461C68FDF7B2
:10B38C00AFFA09A9C0B2FFF72BFB074628BB202355
:10B39C0001460AAA099805F037F80A9B8F4A93428E
:10B3AC0013D1FDF7A3FC402301931AAB0546394694
:10B3BC0000930AAA099B3846CDE903770297FDF75B
:10B3CC00A1FA04462846FDF7A1FCDBF800300999E8
:10B3DC00A34217D0084605F016F88EB1B9F1000F4C
:10B3EC000CD00521794806F017FF0121774806F0AB
:10B3FC0017FFFFF741FD2BB0BDE8F08FB146B3E767
:10B40C000126B8E712AA0AA805F082F88246099824
:10B41C0004F0F9FF14216D4806F0FAFE052270497C
:10B42C006A4806F0E8FE4946684806F0CBFEB8F1DB
:10B43C00010F0E9C09D104F01005002E53D0002DE5
:10B44C0072D12F462C462B4653E0B8F1020F04F074
:10B45C00100411D1002E3AD1002C00F0A68000254A
:10B46C002F462C4609225F49584806F0C4FE01219C
:10B47C00564806F0E9FE49E0B8F1030F10D1002E52
:10B48C00EAD0002C00F09780574907224F4806F06D
:10B49C00B2FE01214D4806F0D7FE092253491AE0AD
:10B4AC00B8F1040F0FD1002ED6D135463746002CFB
:10B4BC007ED006224E49454806F09DFE01214348A8
:10B4CC0006F0C2FE24E0002C2ED12546B9E7002C54
:10B4DC0075D0072244493D4806F08DFE01213B48BA
:10B4EC0006F0B2FE20E0002D6CD1354637464446BE
:10B4FC00012308223F493548079306F07CFE0121C1
:10B50C00324806F0A1FE079B002BABD1002CD0D10A
:10B51C0047B1354907222D4806F06DFE01212B4815
:10B52C0006F092FE002DB8D133490422274806F0CC
:10B53C0062FE3146254806F045FEBAF1000F09D1EE
:10B54C0004222E49214806F056FE20221F4812A93B
:10B55C0006F048FE07222A491C4806F04CFEBDF8AE
:10B56C003E30402101939DF83D30264A00931AA8A5
:10B57C009DF83C3000F09AFD109B4BB1421E3E2AC8
:10B58C0006D81AACC0F140011F4A204400F08EFDD1
:10B59C001AA805F078F81AA902460C4806F02BFEFA
:10B5AC0014210A4806F03CFE17E7254627469FE77C
:10B5BC00012433469DE7012523462F4699E725466E
:10B5CC0001273FE73546374644464BE754520020A7
:10B5DC00BA35010008000020040000203DB8F396A5
:10B5EC0021320100D2350100C1350100E3350100E3
:10B5FC00DC350100C9350100ED350100F2350100E3
:10B60C00F7350100FF3501000B3601002DE9F04341
:10B61C000B4600240121DBB00246CDE90144009128
:10B62C0036A80421089406F0B7FA2146182220A85F
:10B63C0005F062F8474B02221C9307231D93464BDF
:10B64C000DF11F081E93454B0AAF2193042322933F
:10B65C00434B1CA9239336A808ABCDF87C802497C8
:10B66C0004F083FF0446002871D17B68202B6ED137
:10B67C00DFF8F09001212046FDF732F909A90646C2
:10B68C00C0B2FFF7ADF9054600B332464521364846
:10B69C0004F0ACFEC4B14521344804F0A7FE0524E7
:10B6AC000A21334806F0B4FD02223249304806F034
:10B6BC00A2FD21462E4806F07BFD0A212C4806F0FF
:10B6CC00AFFDFFF7D9FB26E00124D3E72023014689
:10B6DC0014AA099804F098FE149B4B451ED00999A6
:10B6EC000CAA14A804F014FF0546099804F08BFE6C
:10B6FC00002DCFD1202239680CA804F0CBFF0028F4
:10B70C00C8D1204698F8001002F054F804460028DE
:10B71C00C6D1FFF717FE5BB0BDE8F083FDF7E6FA84
:10B72C004023019326AB29460646CDE903550295E5
:10B73C00009314AA099B2846FDF7E4F80546304609
:10B74C00FDF7E4FA0C4B1B68AB42C8D0A2E703240C
:10B75C00A6E700BF0F360100491F0100F2350100BA
:10B76C009D1E01003DB8F396173601003C360100D2
:10B77C00545200208835010008000020002307B532
:10B78C0002210093044A4FF4D473044806F067FD79
:10B79C0003B05DF804FB00BF965600205452002005
:10B7AC0007292DE9F74F044640F2FB80037813F08C
:10B7BC00050F40F0F6804388A1F108055BBA9BB2F7
:10B7CC00AB42C0F0EE80834B186083885BBA8380F9
:10B7DC00FFF7D4FFA088012840F0E680E37904F15C
:10B7EC000800012B12D0062B16D0002B40F0EC8059
:10B7FC0023785A0704D103B0BDE8F04FFFF7A2BD80
:10B80C00294603B0BDE8F04FFFF700BF294603B04F
:10B81C00BDE8F04FFFF710BC23785B0702D008207F
:10B82C00FFF7CAFBFDF7EAFF012107466A4806F05D
:10B83C00EFFC06226949684806F0DDFC02216648E7
:10B84C0006F0E2FC0025DFF898910421624806F02E
:10B85C00DFFC002847D0052262495F4806F0CBFC8C
:10B86C00002840D029465C4806F0ACFC00283AD0B1
:10B87C0005225D49584806F0BEFCA0B3022156488B
:10B88C0006F0C2FC78B30026534CDFF860A1DFF859
:10B89C0060B122E004225146204606F0ACFC10B305
:10B8AC003146204606F08EFCE8B131462846FDF7BD
:10B8BC0017F801A9C0B2FFF793F88046C8B102226D
:10B8CC004946204606F097FC68B14146204606F0F2
:10B8DC006FFC40B1002E43D101260321204606F017
:10B8EC0097FC0028D6D1FFF749FF0220FFF764FB35
:10B8FC0055E004225946204606F07DFC90B1019B90
:10B90C002046996806F05EFC60B10F22204639494A
:10B91C0006F071FC30B106EB45012046013106F012
:10B92C0051FC18B9019804F06EFDDCE7019804F0A5
:10B93C006AFD0321204606F073FC0028D3D0002EAC
:10B94C00CAD00221244806F067FC0028CBD017F897
:10B95C00353043B90421204806F062FC0028C2D0DF
:10B96C008DB9012571E70E2223491B4806F043FCD3
:10B97C000028B8D03B1D53F83510174806F022FCB0
:10B98C000028E7D1AFE70221134806F045FC002858
:10B99C00A9D00121104806F043FC0028A3D0FFF7E2
:10B9AC006BFA03B0BDE8F08F70B9E379012B0CD0C2
:10B9BC00052B09D1FFF700FB4FF40050002103F0D9
:10B9CC00EBFC0120FEF7CAFD082003B0BDE8F04FE8
:10B9DC00FFF7F2BA9C52002054520020BA350100F5
:10B9EC00883501002132010068360100ED35010077
:10B9FC00883601006E3601007E36010001232DE9E8
:10BA0C00F34100240546264FDFF898803B70264B07
:10BA1C00264E009418603B7813B902B0BDE8F08153
:10BA2C00234BC4F58061C3F80086C3F80486C3F8C1
:10BA3C000886C3F80C86C3F81086C3F81486C3F8BE
:10BA4C001886C3F81C862B6801AA01313019984757
:10BA5C000028019B01DC002BDDD004442BB940F203
:10BA6C0001439C42D7D10024D5E73378062B09D16A
:10BA7C007378092B0BD1002300936946A01EFFF7A6
:10BA8C002DFC04E0042B02D17378142BF5D0012883
:10BA9C00E9D1009907480239FFF782FEE3E700BFBE
:10BAAC003E5800203546526EA0520020405C0020CB
:10BABC00008001504158002030BFFFF7FDBF00BF90
:10BACC00074A936893F90E10002907DB52699342D9
:10BADC001FBF044A536843F080535360704700BF44
:10BAEC008853002000ED00E0154B9A6A12F0007F9D
:10BAFC009A6A14BF1E201D2012F0807F9A6A18BF0C
:10BB0C001F2012F4801F9A6A18BF022012F4002F13
:10BB1C009A6A18BF212012F4802F9A6A18BF22202B
:10BB2C0012F4003F9A6A18BF232012F4803F9A6ADD
:10BB3C0018BF24206FEA02426FEA12429A627047E1
:10BB4C0000ED00E010B5194B0246986A9C6A10F49F
:10BB5C00805F14BF1720162014F4006F9C6A18BF66
:10BB6C001820A40509D5986B986A000404D51AB15D
:10BB7C009A6A22F400429A6219200C4B9A6A12F4C7
:10BB8C00806F9A6A18BF1A20D2050CD49B6A13F4E2
:10BB9C00005F18BF1C20054A936A43F47F439362ED
:10BBAC0000230B7010BD1B20F5E700BF00ED00E07B
:10BBBC0010B51C4B0246986A9C6A10F0100F14BF0B
:10BBCC001120102014F0080F9C6A18BF1220A40733
:10BBDC0009D5586B986A000604D51AB19A6A22F0F6
:10BBEC0080029A6213200F4B9A6A12F0010F9A6A24
:10BBFC0018BF142012F0200F9A6A18BF1520D40613
:10BC0C0058BF9B6A074B9A6A920642BF5A6A22F443
:10BC1C0000525A629A6A42F0FF029A6200230B7039
:10BC2C0010BD00BF00ED00E070B5444B06465B68EC
:10BC3C0000258AB0C3F3080385F31188BFF36F8F17
:10BC4C0002F07F40B0F17F4F11D102F00C000828B8
:10BC5C000DD010074CBF0E4601250022033B8DF87A
:10BC6C000720032B05D8DFE803F01E5C60592E4635
:10BC7C00F3E700249DF807309BB92022314602A837
:10BC8C0004F02FFD099B002D53D0C3F3080222B9F9
:10BC9C006FEA53236FEA43230993204602A904F069
:10BCAC00B6FC0AB070BD254BDA6A9107E1D4DA6AAA
:10BCBC00002ADEDBDA6A5200DBD55A69B16942F43C
:10BCCC0080725A61BFF34F8FBFF36F8F5A6931F88F
:10BCDC00021C22F480725A61BFF34F8FBFF36F8F37
:10BCEC004DF60272914209D09A6AD2B242B1012049
:10BCFC000DF10701FFF75CFF0446BBE73468B9E7B9
:10BD0C009A6A12F47F4F05D001200DF10701FFF75D
:10BD1C0019FFF1E79B6AB3F5803FAAD3FFF7E4FE66
:10BD2C00EAE700200DF10701E4E700200DF107011F
:10BD3C00EDE723F4FF7323F00103ADE700ED00E022
:10BD4C00064B5A6942F010025A615A6942F48062F9
:10BD5C005A615A6922F008025A61704700ED00E0FE
:10BD6C00EFF30880EFF3098101B57246FFF75CFF32
:10BD7C0001BD00BF002080F31488BFF36F8F00203B
:10BD8C0080F30A8880F30B8801F06EFD00200E49C9
:10BD9C000860BFF34F8F0D4880F3088800F02CF833
:10BDAC00202080F311880A484FF40061401880F37A
:10BDBC000988EFF314800221084380F31488BFF341
:10BDCC006F8F00F0F9F8000094ED00E0D89100209E
:10BDDC0098600020BFF34F8F0549064BCA6802F4E8
:10BDEC00E0621343CB60BFF34F8F00BFFDE700BF92
:10BDFC0000ED00E00400FA0572B6002383F313880B
:10BE0C004FF0FF300C4A03F120010133102B42F8A4
:10BE1C002100F8D100234FF0FF30074A03F16001F5
:10BE2C000133102B42F82100F8D162B6BFF34F8FCB
:10BE3C00BFF36F8F704700BF00E100E0084B9B68B9
:10BE4C0083420BD1EFF3058343B1064B5A6842F0A2
:10BE5C0080525A605A6A22F400425A6206F05FBB62
:10BE6C008853002000ED00E06FF00A01084A936847
:10BE7C009967084958674B6843F080534B6000231F
:10BE8C0083F31188BFF36F8F9368986F704700BF6F
:10BE9C008853002000ED00E0EFF31183202383F39F
:10BEAC001288BFF36F8F4FF00061064A536993609D
:10BEBC00054A516000215A6F596782F31188BFF30C
:10BECC006F8F70478853002000ED00E00E498A68A0
:10BEDC004FF030001044EFF3098C80E8F01F7446EB
:10BEEC007046FFF7D9FFA64607498A6802F1300071
:10BEFC0090E8F01F8CF3098802F1000004B504F0FF
:10BF0C009BFBBDE804407047885300201EF0040FD3
:10BF1C000CBFEFF30880EFF30980816911F8021C64
:10BF2C000229FFD001B504F078FB01BD40B2002816
:10BF3C0007DB01234109034A00F01F00834042F84C
:10BF4C002130704700E100E040B200280CDB0122F8
:10BF5C000649430900F01F008240203341F823209A
:10BF6C00BFF34F8FBFF36F8F704700BF00E100E04E
:10BF7C00054B420953F82220012300F01F0003FA5D
:10BF8C0000F01040704700BF00E100E040B2002814
:10BF9C0001F10101ACBF00F16040064B4FEA4111C9
:10BFAC00C9B2ABBF00F5614000F00F0080F8001380
:10BFBC001954704714ED00E00B4A08B50B4B22F0F6
:10BFCC007F029A60BFF34F8FBFF36F8FD3F8882037
:10BFDC0022F47002C3F8882002F026FD03F086FAE2
:10BFEC0000F046F802F060FD0082000000ED00E079
:10BFFC0042F8203C009B0B4942F81C3C019B21F071
:10C00C00010142F8183C029B42F8081C42F8143C0F
:10C01C004FF0807342F8043C0023203A02654367DA
:10C02C00704700BF3502010000B50B4B0E469860FF
:10C03C001546436E83F30B882C4686F309884FF024
:10C04C000000064B984720464FF000014FF00002CD
:10C05C004FF00003024C2047885300204D0601008E
:10C06C00350201001022014B1A61704700ED00E00F
:10C07C00002320210348C2180133412B82F80013FE
:10C08C00F9D1704700E100E008B5EFF30583064AEB
:10C09C00103B02EBC30152F8330049688847BDE8F6
:10C0AC000840FFF70DBD00BFA02601000CB410B571
:10C0BC0086B009B90DF10B000024CDE9040109ABE0
:10C0CC00089A009404A905480393FEF725F8049BED
:10C0DC001C7006B0BDE8104002B070471707010095
:10C0EC000122024B0020C3F84025704700900350FA
:10C0FC0020B1034B800143F001031847704700BF88
:10C10C00E0280100084B70B5C31A0D4607499B1077
:10C11C00044659434022064804F00DFB2B460146C9
:10C12C002046BDE870401847B8520020B76DDBB60A
:10C13C0014260100402373B50B4C0093041B0B46D3
:10C14C000D460A49A41061430646094A094804F001
:10C15C001DFB011E05DA30462B4602B0BDE87040CF
:10C16C00184702B070BD00BFB8520020B76DDBB6E7
:10C17C00010801001426010010B5EFF311842023EF
:10C18C0083F31288BFF36F8F074A136823F0020101
:10C19C00DB07116002D4012005F0C7FB84F3118882
:10C1AC00BFF36F8F10BD00BF0853002070B5002285
:10C1BC00012104460520FFF7E9FE0F4801F07AFC47
:10C1CC000E4B984215D101F085FC26690C4930467E
:10C1DC0004F083F800280BDB012535642469084939
:10C1EC0004F11C0004F079F8002801DB0020E56460
:10C1FC0070BD6FF00400FBE709C300000000AD0B3D
:10C20C00E82A01001FB500220123CDE902236B4669
:10C21C00084ACDF800D0CDF804D004F0E4FA002898
:10C22C0005DB4FF480420023684602F0BFFD05B0E9
:10C23C005DF804FB1F0801000C22104B014602FBA9
:10C24C000033002030B4D3E90E529863EFF3118021
:10C25C00202484F31288BFF36F8F1C6C04F0C0048D
:10C26C0044F002041C6480F31188BFF36F8F1DB17E
:10C27C002B4630BC0248184730BC7047B8520020DF
:10C28C001426010010B4EFF31182202383F31288DB
:10C29C00BFF36F8F1748016841F002040460C807B0
:10C2AC0007D482F31188BFF36F8F012010BC01F00B
:10C2BC0025BC4FF05021D1F80C04D1F80C14C9074F
:10C2CC00EFD5EFF3118083F31288BFF36F8F0A4918
:10C2DC000B6C03F0C00343F002030B6480F3118872
:10C2EC00BFF36F8F82F31188BFF36F8F002010BCE8
:10C2FC00FFF7A2BF08530020B852002010B101284C
:10C30C0004D07047034B1B6C5B0701D1FFF794BF44
:10C31C00704700BFB85200202DE9F04101220746BA
:10C32C003649D1E8EF3FC1E8E02F0028F9D133B905
:10C33C00334934484B60CB608A6003F0E1FF7B1ECD
:10C34C00012B2BD8012F07D14FF05023D3F81C34DD
:10C35C0003F00303022B21D006F036F80546F8B99A
:10C36C00294B1B78E3B14FF0502302220646C3F849
:10C37C0008234FF05024DFF89480D4F81824D4F814
:10C38C001834D20315D503F00303022B01D0012F6F
:10C39C000FD16DB386F31188BFF36F8FBDE8F081B9
:10C3AC00EFF31186202383F31288BFF36F8F0125DF
:10C3BC00DFE7C5B1304604F057F9D4F81835DBB2D5
:10C3CC00012BDAD1D4F80421002AD6D00022C4F8EB
:10C3DC000421D4F804210222C4F818252022C8F81C
:10C3EC008021A360C9E70021212002F0D5FFE4E7FA
:10C3FC004FF050230222C3F80423CFE7B45200209D
:10C40C00A4520020D45200209560002000E100E0EE
:10C41C0000487047B42B0100024B0B6001231360E2
:10C42C00704700BF2C53002000487047D02B0100F0
:10C43C0010B501220648114605F0BAFF05F0DCFAEA
:10C44C00044C206005F0D5FA6060002010BD00BFE0
:10C45C00345300202C53002070B50C46154605F0C3
:10C46C00C8FA29460646204604F02DFD08B3B4FB55
:10C47C00F6F306FB1343E3B9B5FBF6F306FB1353D4
:10C48C00BBB9AE4201D9002070BD4FF0FF324FF066
:10C49C00FF33094802F08AFC05F0ABFA0646204649
:10C4AC0001F04EFFAD1B3444F9D1034802F05AFCA5
:10C4BC00E9E76FF01500E7E734530020F8B50E46B6
:10C4CC001946304617461C4604F0FDFC08B344EAF6
:10C4DC00060515F003051CD1A4B14FF0FF324FF047
:10C4EC00FF330D4802F062FC24F00304A54206EB76
:10C4FC00050009D1094AD2F80034DB07FBD5064800
:10C50C0002F030FC0020F8BD795901F037FF0435FA
:10C51C00ECE76FF01500F6E7345300200090035061
:10C52C00C3780F2B14D9C96B0B480B0E13708B02ED
:10C53C0000EA911003F47C030906034301F0FE4169
:10C54C0010680B43054901400B43002013607047F2
:10C55C006FF08500704700BF00FF0300FF000080F4
:10C56C0038B545682B69B3B11035284601F0C4FDC8
:10C57C00044680B90146284601F08CFD084B9842D0
:10C58C000BD122462846074901F06CFD22460521B5
:10C59C000D20FFF7FBFC002038BD6FF00400FBE71B
:10C5AC000000AD0BB5C50000430970B507D10B4BAE
:10C5BC00596821B101250C68094E854001B970BD3F
:10C5CC008A682A4002D030464B6898471CB12368D1
:10C5DC0021461C46F2E72346FAE700BF44530020ED
:10C5EC00282601002DE9F04340F206354668D006B6
:10C5FC0048BF0320337B02EA050558BFC2F3401045
:10C60C0087B001F01F07B5F5837F144647EA43173F
:10C61C008DF8030042D00FD8062D18D007D8B5B12D
:10C62C00022D3DD06FF0150007B0BDE8F083B5F5D5
:10C63C00807FF7D101250AE040F20222954231D0E9
:10C64C00B5F5407F30D0B5F5007FEBD10225012345
:10C65C00220303FA01F129D573689960326952BB40
:10C66C0007F01F037F0973D13B4A84F4803102EB3E
:10C67C008302D2F80032C1F30041C4F3404423F4E6
:10C68C00E16344EA410423F007031C4344EA8004B9
:10C69C0044EA0524C2F800420020C5E70725D6E786
:10C6AC000425D4E70525D2E70325D0E7630344BF6F
:10C6BC007368D960D2E71036394630460DF1020264
:10C6CC0001F0D6FC14F4403F80460CD1394630467C
:10C6DC0005F085F9214B9845DED130469DF80210C6
:10C6EC0001F014FDD8E74FF0000901AB3946304694
:10C6FC0003AACDE90439CDE90199CDF80C9001F0EC
:10C70C008BFB164B98428DD114F4003315D09DF849
:10C71C00033084F48034C4F300448DF80E30394671
:10C72C004B46304603AA8DF80C508DF80D4001F0A5
:10C73C0021FC0A4B9842CDD074E7CDE9043339463D
:10C74C000DF10303304603AA039301F065FBF0E7F8
:10C75C00803352F82330FFDE002584500000AD0BEF
:10C76C00F0B5406801F01F04057B87B044EA45141E
:10C77C000569002D5FD0B2F5001F00F1100506D140
:10C78C002146284605F02DF9002007B0F0BD002702
:10C79C00B2F5800F01AE0197776037D1B3F1007F0E
:10C7AC0014BF052304238DF804300023CDE9046362
:10C7BC000393836823FA01F111F0010118D1B2F14E
:10C7CC00A07F15D104F01F03620903F1800338D157
:10C7DC001D4A52F82330DB070AD40DF1030632460A
:10C7EC002146284601F044FC184B984219D0029679
:10C7FC002146284603AA01F00FFB154B98421DD188
:10C80C0001222146284601F08DFCBDE7B3F1C06F33
:10C81C0005D0B3F1007F14BF01230223C3E7032328
:10C82C00C1E73146284601F077FC094B9842DED02F
:10C83C006FF00B00A9E76FF08500A6E76FF015000D
:10C84C00A3E751F82330FFDE002584500400AD0B24
:10C85C000000AD0B2DE9F04740F2FF16594FDFF801
:10C86C0068C1DFF868E100EB8101814202D1002050
:10C87C00BDE8F087046814F4804FC4F3C325C4F3F7
:10C88C00080340F08C80240EB34208BF4FF0FF33F6
:10C89C007D5D192C00F28680DFE804F00D13191C65
:10C8AC001F251C84848484366084848484848484DA
:10C8BC00848463787B7EC2F80C355C1C5BD10430BD
:10C8CC00D3E7C2F814355C1CF9D000245CE0C2F844
:10C8DC000835F2E7C2F81035F5E75C1CC2F80835EC
:10C8EC00EDD0002404E05C1CC2F80C35E7D0012428
:10C8FC005FEA531859D14FF00109DFF8CC8009FADF
:10C90C0003FAC8F80CA008E0C2F80835002DDAD1FB
:10C91C005C1CD4D000240625A146D0F800A00AF453
:10C92C000048B8F1000F1CBF4FF00009012403F0C0
:10C93C001F085B093FD10CEB8808D8F80032CAF30A
:10C94C00412A03EA0E0343EA8A0343EA052343EA36
:10C95C00090343EA4403C8F80032B0E7C2F80C35C7
:10C96C00D4E7C2F86035B3F1FF3F0468A7D0C4F335
:10C97C000044002CBBD05C091AD10124DFF848809C
:10C98C0004FA03F9C8F80890A146C6E7C2F8643562
:10C99C00E9E7C2F86835E6E7C2F86C35E3E76FF013
:10C9AC00150065E76FF0850062E70023DB60FFDEB2
:10C9BC0000239B60FBE7002308F1800853F8283024
:10C9CC00F5E700BFD436010000258450F0F8FCFFD9
:10C9DC002DE9F04104460D46476805F0F5FC4FF093
:10C9EC00200888B9264B1B7873B16426606804F064
:10C9FC0007FCF0B9012004F036FF013EF6D100210E
:10CA0C00212002F0C9FCF0E7EFF31186314688F3E0
:10CA1C001288BFF36F8F606804F0F2FBA8B986F33D
:10CA2C001188BFF36F8FEFE786F31188BFF36F8F19
:10CA3C00E5E7EFF31186314688F31288BFF36F8F69
:10CA4C00606804F0DDFB0028EED0BB6900201D708F
:10CA5C006368BA691B68C3F844250122C3F84825EA
:10CA6C00C3F82001D3F82041C3F85801D3F858017A
:10CA7C009A6081F31188BFF36F8FBDE8F08100BF1E
:10CA8C0095600020F7B50546426813691168C1F836
:10CA9C002435137D507D927D03431343C1F86C35CF
:10CAAC006E68D6E9004313F0010348D02F6907F1F3
:10CABC000C0000F0F9FF304B98425AD1387B04F14E
:10CACC000C0204F5907104F0D0FE387B012707FAB4
:10CADC0000F000F0E3FF0823C4F80035B369C4F894
:10CAEC0044350023C4F84835A760D4F85831002BDE
:10CAFC00FBD00021C4F800156B6801AADC68204645
:10CB0C0004F0C7FA002805DB019B22681979186824
:10CB1C00FFF7A0FE08216A681368C3F80015117AA4
:10CB2C0051B9D269C3F834250122C3F83825C3F8AA
:10CB3C001011D3F810111A60002003B0F0BD0822B8
:10CB4C00C4F80025B269C4F84425C4F8483501235B
:10CB5C00A360D4F82031002BFBD00023C4F8203183
:10CB6C00D4F820310123E3604FF48073C4F804330C
:10CB7C00BBE76FF00400E0E70000AD0B2DE9FF41CF
:10CB8C0005690646D0F80480A86C2B6D002835D1B9
:10CB9C00002B53D0B8F830406A6C9C4228BF1C461E
:10CBAC00EF6CEB6C53B1296D41B107F06041B1F101
:10CBBC00005F03D0082C28BF08246F6E00926A6CAB
:10CBCC00AC651AB1AA6C002A18BF2246CDE9012720
:10CBDC001BB12B6D002B18BF234600226946404623
:10CBEC00039301F083FD184B984229D06FF0040198
:10CBFC00304604B0BDE8F04104F092BC696CEF6CB7
:10CC0C000A46B8F83040ABB1834228BF03469C4279
:10CC1C0028BF1C460029C4D001F06043B3F1005F6B
:10CC2C00BFD0082C28BF0824286E224603F059FDDB
:10CC3C002A6EB6E7844228BF0446EBE71946D7E7CD
:10CC4C0004B0BDE8F08100BF0000AD0B2DE9F04F42
:10CC5C00984643688DB001938B880F46990405461E
:10CC6C009146046900F10E814FF0FF324FF0FF3313
:10CC7C0004F1100002F09AF86760D5F804B0D5F80A
:10CC8C0010A0DBF8083003939AF85D301BB1DAF88A
:10CC9C0000309F427AD0B7F804E01EF4006F40F0E9
:10CCAC001E811EF0090F40F01781CEF34513082B9F
:10CCBC0040F012813B680293029AA04B9A4240F2D8
:10CCCC000B8104AE0BF10C0CBCE80F000FC69CE8FA
:10CCDC000F0086E80F00DDE902329A4228BF1A469F
:10CCEC00974B9A4215D2974B9A4200F2D480964BAE
:10CCFC009A4200F2D280954B9A4200F2D080944B2B
:10CD0C009A4200F2CE809348934B9449824288BF5A
:10CD1C000B461EF0020F09930EF0040300F0C380C3
:10CD2C00002B14BF032302238DF82830CEF30013FD
:10CD3C008DF82930DBF800301EF0020FD3F80825EF
:10CD4C0087484FF00103CEF340014FEA521640F0F2
:10CD5C00AE80002E40F0ED809340C3609AF85D30B9
:10CD6C002BB1584601F086FC00238AF85D302B4627
:10CD7C0058467C4A04A901F049FC7B4B984240F090
:10CD8C009B800123CAF800708AF85D30012384F877
:10CD9C005C30019B996B4A1C03D003F13C0000F002
:10CDAC001DF9B9F1000F40F09D80C4F834900023B8
:10CDBC00A36304F1480204F1380104F1340004F0D7
:10CDCC00D8FA6064B8F1000F40F09580C4F83C804C
:10CDDC000023236404F1500204F1400104F13C00EF
:10CDEC0004F0C7FA002601213246E064266320468F
:10CDFC0004F0F5FA2846FFF7C1FE32463346A06B25
:10CE0C00834240F0818000231946266CB14240F0E9
:10CE1C008280934238BF134627464FF4FA524FF0A4
:10CE2C00000802FB03F657F8203B4FF4004C1B683C
:10CE3C004146B6FBF3F640F2E730C8364FF47A724F
:10CE4C000023E6FB0C01FBF71BFB02460B463846A6
:10CE5C0001F0ACFF024618B9266B16F1740F61D1C4
:10CE6C000198C4F8588001F005FC6FF07301284656
:10CE7C0084F85D8004F054FB384601F0BDFF6FF080
:10CE8C0073061BE0A369002B7FF4EEAE63689F4230
:10CE9C007FF4EAAEF1E6354B3BE7354B39E7354BE2
:10CEAC0037E7354B35E7003B18BF01233CE7002E35
:10CEBC0041D19340836051E76FF0040623689B884F
:10CECC0013F4005304D1636004F1100001F04AFF25
:10CEDC0030460DB0BDE8F08F6FF01506EEE76FF041
:10CEEC008506EBE7D9F800306363002B3FF45FAFA6
:10CEFC00D9F804305CE7D8F80030E363002B3FF43A
:10CF0C0067AFD8F8043064E7616B01EBC301496883
:10CF1C0001330A4474E7E06B00EBC1004068013157
:10CF2C00034473E7002EC9D00146286904F057FA70
:10CF3C00C4E7C960FFDE00239B60FBE747E8010004
:10CF4C0000127A00FF083D007F841E003F420F0054
:10CF5C001FA107008FD0030048E8010090D0030008
:10CF6C00002584504F1501000000AD0B00093D0059
:10CF7C0080841E0040420F0020A107000123F0B561
:10CF8C0087B08DF80230022300248DF804306B44F6
:10CF9C0003930F4601AB0DF1030104930546029177
:10CFAC00059401F0B9F80C4B064698420FD139465E
:10CFBC00284603AA00F030FFB0420BD028469DF85B
:10CFCC00031001F0A3F86FF0040007B0F0BD6FF090
:10CFDC001200FAE72046F8E70000AD0B2DE9F0410E
:10CFEC000D46064604F0FFFC002207462946304653
:10CFFC0001F098F86B0905F01F0429D1174B03EBCE
:10D00C008404D4F80022164B134043F00C03C4F8EC
:10D01C00003204F0FBFA80463368DB597BB1002701
:10D02C003046294604F0DDFCD4F800220C4B38467F
:10D03C00134043F00403C4F80032BDE8F08104F05F
:10D04C00E5FAA0EB08000628E6D96FF07307E7E7CE
:10D05C000023803453F82430FFDE00BF00258450B9
:10D06C00F0F8FCFF0123834070B5DC430B4AD2E897
:10D07C00EF1F01EA0405C2E8E65F002EF7D14FF47A
:10D08C00803282400648C0F80823BFF35F8FBFF39D
:10D09C006F8F0B4214BF0120002070BD5453002031
:10D0AC000050015070B40E4922F07F46D1E9003493
:10D0BC00D01AC31844F10004C1E90034A6F50013DA
:10D0CC00B3F5400F09D2074B1B681A0A1B069C19B3
:10D0DC00054B42F10005C3E9004570BC02F0E0BA13
:10D0EC00400200205853002048020020D9B10123EF
:10D0FC000D4A8340D2E8EFCF4CEA030CC2E8E1CFF3
:10D10C000029F7D14FF48033084A8340C2F8043326
:10D11C00074BD3E8AF3FC340DB0742BF4FF40012CD
:10D12C00044BC3F8002170475453002000500150A9
:10D13C005053002000E100E00D4B1868010A000676
:10D14C00BFF35F8F0B4BD3F80435181841F1000176
:10D15C00B3F5801F0AD2084BD3E90023904271EB40
:10D16C00030303D210F1807041F10001704700BF3E
:10D17C005853002000500150480200202DE9F04F78
:10D18C0085B016461F4604469DF840A0FFF76AFF7F
:10D19C000190FFF7D1FFB04271EB070352D23B4B2A
:10D1AC00301A67EB0101984271F100014DD2384BF6
:10D1BC0003EB0413D3E902239F4208BF964258D0D5
:10D1CC004FF48038334908FA04F8204626F07F4B98
:10D1DC00C1F8488304F00EFA4FF00309584604F1E5
:10D1EC005005AD00ADB205F1502504F5A87305F559
:10D1FC0080350293029A20F07F4341F82230C1F827
:10D20C004483D1F80435244AC01A033820F07F40F7
:10D21C0090422ED9286868B1D1F80435A3EB0B00E5
:10D22C0020F07F40B0F5000F039322D9204604F084
:10D23C00E1F9039BBAF1000F07D109EB030009F1E7
:10D24C000109D7E7BAF1000F09D06FF01505204698
:10D25C000199FFF74BFF284605B0BDE8F08F01237D
:10D26C000E4AA340D2E8EF0F1843C2E8E10F0029A1
:10D27C00F8D107490E982301C8500F9B01EB0412FB
:10D28C000025C2E902675360E1E700BF010080009E
:10D29C003002002000500150FDFF7F005053002051
:10D2AC007FB500254FF0FF304FF0FF31194C1A4B72
:10D2BC000226C4F80833C4F84833184BC4F8085590
:10D2CC00C3E902014FF480334FF40012C4F8043365
:10D2DC00134B0121C4F804631520C3F880212A469E
:10D2EC00FEF754FE1520FEF721FE01230D4AA36024
:10D2FC00236013600C4B0D4A009328460023CDE9A4
:10D30C000155FFF73BFF3046FFF706F8284604B0FF
:10D31C0070BD00BF0050015003000F003002002010
:10D32C0000E100E054530020B1D00000FFFF7F006B
:10D33C002DE9F7432E4BD3F8042390070BD5D3F8E4
:10D34C00042142B10022C3F804212A4AD3F8043143
:10D35C00136801331360264AD2F80433D90326D557
:10D36C00254BD3E8EF1F21F00100C3E8E40F002C9C
:10D37C00F7D1CB0702D4D2F84031C3B100251C4CF5
:10D38C00C4F84051D4F84031FFF7D6FEEFF31182C8
:10D39C00202383F31288BFF36F8F184BD3E90267F6
:10D3AC00B042B94106D282F31188BFF36F8F03B03C
:10D3BC00BDE8F0834FF0FF38D3E900104FF0FF3990
:10D3CC001D60C3E902894FF48033C4F84833C4F8B4
:10D3DC004051D4F8403182F31188BFF36F8F00298C
:10D3EC00E5D0009032463B4628468847DFE700BF31
:10D3FC0000500150585300205053002030020020A0
:10D40C0030B5431C124C85B005D08442A8BF0446ED
:10D41C00012CB8BF0124FFF78FFE0E4B0C4DD3E946
:10D42C000013401AB0F5000F0FD22218AA4228BFE1
:10D43C002A46002052180849CDE90100009143F119
:10D44C000003FFF79BFE05B030BD2A46F1E700BF95
:10D45C00FFFF7F0040020020B1D0000008B5FFF7AD
:10D46C006BFE024B1B68C01A08BD00BF40020020B7
:10D47C00012310B5074C15206360FEF765FD4FF4D2
:10D48C000012054BC4F80833C4F84833034BC3F8F7
:10D49C00802110BD0050015003000F0000E100E09E
:10D4AC0040EA0103C3F30E0330B58BB940F21515F6
:10D4BC00094CC90BC0F3C730994201D1002030BDD3
:10D4CC00C218D2B202F5C07244F822500133F3E70D
:10D4DC006FF01500F3E700BF00300050054B1B68E0
:10D4EC00DA6AB2F5807F01D8DB6918476FF00D005E
:10D4FC00704700BFDC910020014B1B681B6A18476A
:10D50C00DC910020014B1B685B6A1847DC91002002
:10D51C0010B4034C2468E469A44610BC604700BFF7
:10D52C00D89100202DE9F043234885B004F072F81F
:10D53C0000250446204B214ED3F83880DFF880902C
:10D54C00A84503D8002005B0BDE8F083636A96E8CF
:10D55C0007001F6801AB83E807000C221946384608
:10D56C0003F098F888B987B1636A21691B681A6956
:10D57C0091420AD19A69A169914206D8E169914216
:10D58C0003D962695B699A430CD0276A77B10D485D
:10D59C0002F03DFE002383F31188BFF36F8F042349
:10D5AC00184602DFE36801351C44C9E7484602F01F
:10D5BC002EFE636A1F60F5E700840000C02801009E
:10D5CC0022370100F936010030B5816885B0103979
:10D5DC0021F00704054602F060FF10220146684660
:10D5EC0003F08AF810226846064903F07AF81023F3
:10D5FC006A462146284602F01CFF003818BF01205D
:10D60C0005B030BD222E010030B50D46816887B0C3
:10D61C00102302AA1039044602F0F6FE002802DAA2
:10D62C00012007B030BD1022204602A904F01CF8DE
:10D63C0000283AD110221E4902A803F02BF800282A
:10D64C000CBF012302232B70204603F0F9FF0123AA
:10D65C0001460DF10702204602F0D6FE0028DFDB62
:10D66C009DF80730204603F00F021B096A702B71DE
:10D67C0001220DF1070103F0F7FF10B96B78042BB1
:10D68C0003D901236B7000232B71A2682046183A32
:10D69C0022F00702083AA91C03F0F9FF0028BFD1B9
:10D6AC002046E91C04F04CF8BBE70323CBE700BF92
:10D6BC00222E0100F0B5354F85B04600054669466F
:10D6CC0057F8260004F042F8044610B1FF2005B0CC
:10D6DC00F0BD013657F8260002A904F037F80128EE
:10D6EC0037D12A4649212A4802F080FE294B8DF871
:10D6FC000C40029300229DF800609DF80870264CA7
:10D70C003146207803F0A2FF50B33946607803F01D
:10D71C009DFF28B3A378042B03D09DF803109942E6
:10D72C001ED1E378042B03D09DF80B10994217D12E
:10D73C002379042B10D16279022A1DD1174B18487A
:10D74C002A46492102F052FE6079831E022BBED973
:10D75C00BCE70028CED0B9E79DF802109942EAD078
:10D76C000132032A04F10604CAD10E482A46492183
:10D77C0002F03CFE0120AAE7032A05D00A4B0B4914
:10D78C00042A08BF0B46DAE7094BD8E7542D0100F1
:10D79C0078370100030103030D3801005A370100EB
:10D7AC00C3370100E73701005F3701007137010013
:10D7BC005537010013B50C4B0C4603EBC00001A907
:10D7CC000079FDF70DF9014660B9221E18BF012240
:10D7DC00019803F0E8FF0446019802F014FE20467D
:10D7EC0002B010BD0124FAE7542D010008B5EFF387
:10D7FC001083012B0C4A07D1126ABFF34F8F511CB7
:10D80C004A424A41104608BD04F00BF800B172B60A
:10D81C00126ABFF34F8F531C5A425A4104F001F85D
:10D82C000028EFD062B6EDE70080FF0008B5EFF3FB
:10D83C001083012B0B4A06D1D269BFF34F8F02F034
:10D84C000102104608BD03F0ECFF00B172B6D269BC
:10D85C00BFF34F8F02F0010203F0E3FF0028F0D07A
:10D86C0062B6EEE70080FF0010B503F0DAFF30B1CE
:10D87C004FF050230022C3F81421C3F8182103F0F1
:10D88C00DFFF28B101225F4BC3F8382AC3F8782593
:10D89C004FF47F02D2F83031D2F83421BFF34F8FDE
:10D8AC00C3F30B03092B05D1012A1EBF0122554BD3
:10D8BC00C3F8782503F0C4FF18B10E22524BC3F8FD
:10D8CC00E42E03F0AEFF30B100224E4BC3F80C2710
:10D8DC000122C3F810270022D30003F57F03D3F8ED
:10D8EC000013BFF34F8F013108D0D3F8001301326E
:10D8FC00D3F80433B2F5807F0B60EDD1EFF31084D5
:10D90C00FFF794FF00284DD0BFF34F8F3F4BD3F858
:10D91C000024012AFBD1C3F80425D3F80024012AE2
:10D92C00FBD1012C03D003F07CFF00B172B6FFF7E2
:10D93C007DFF58B1364AD36923F00103D361BFF39D
:10D94C004F8F324AD2F80034012BFBD1FFF74EFF38
:10D95C0068B12F4A136A23F0FF0343F020031362CC
:10D96C00BFF34F8F294AD2F80034012BFBD1012C85
:10D97C0003D003F056FF00B162B60022234BC3F86C
:10D98C000425D3F80024012AFBD1BFF34F8F214982
:10D99C00214BCA6802F4E0621343CB60BFF34F8F94
:10D9AC0000BFFDE7FFF722FF0028ADD1194AD2F8DE
:10D9BC008C3043F44063C2F88C304FF47F03D3F8BF
:10D9CC003021D3F83431BFF34F8FC2F30B02092A45
:10D9DC0016D1013B022B02D8104AD35C83B10C4800
:10D9EC000F490368094A8B420CBF5A230023C2F823
:10D9FC00103EC36A8B420CBF5A230023C2F8003E70
:10DA0C0010BD00BF0040005000A003500090035018
:10DA1C000080FF0000ED00E00400FA051F38010053
:10DA2C00FA50FA5030B50468ACB1B4FA84F3012260
:10DA3C00C3F11F03DBB29A4024EA0202D0E8EF5F85
:10DA4C00A54204D1C0E8EC2FBCF1000FF6D1EAD10D
:10DA5C0002480B7030BD0248FCE700BF0000AD0B64
:10DA6C000200AD0B10B50368CB40DB0710D40123CB
:10DA7C008B40026843EA0201D0E8EF4F944204D194
:10DA8C00C0E8EC1FBCF1000FF6D1F2D1014810BD7B
:10DA9C000148FCE70000AD0B0400AD0B014BC3F8D3
:10DAAC0004057047007001500146014800F0B0B801
:10DABC00E8000020044B1A7922B9012218601A716F
:10DACC0002487047024870475C5300200000AD0BC1
:10DADC000C00AD0B08B5084B1B6833B10520FEF7E5
:10DAEC0047FA10B90520FEF721FA4FF05023012216
:10DAFC00C3F8182508BD00BF5C53002010B510B149
:10DB0C00012847D010BD4FF05023D3F81814D3F888
:10DB1C001824C90322D502F00303022B05D0012BD4
:10DB2C0002D0002003F0A8FE01234FF05022022067
:10DB3C00C2F8183508224FF48273002103F15023E8
:10DB4C0019601C68012402F150221460164A1268F4
:10DB5C0022B34FF05023C3F80403D3E7D3F81424B3
:10DB6C00D207E1D5D3F81C2402F00302013A012AB2
:10DB7C00D7D80D4A12681AB10222C3F80423C1E7A0
:10DB8C00D3F80421002AFBD00022C3F80421D3F8D7
:10DB9C000431B7E700224FF48073CEE71A68002AED
:10DBAC00FCD019601B68ADE75C5300204FF050238C
:10DBBC0010B5D3F8002152B10020C3F80001D3F8FE
:10DBCC0000210122C3F80823104B1B6898474FF023
:10DBDC005023D3F8042182B10022C3F80421D3F8D6
:10DBEC000421D3F81824D3F81824022102F00302DC
:10DBFC00012A03D1C3F818159A6010BDC3F8081395
:10DC0C00024B0120BDE810401B6818475C530020F4
:10DC1C000079024B03EB0010FFF704BFF00000206B
:10DC2C00036803F01F025B090260024818BF002062
:10DC3C00704700BF0025845070B50D4C00F10803EF
:10DC4C0034F813300546DA050E4607D5C3F34323E3
:10DC5C0004EBC302526854F833309847A3682BB1D5
:10DC6C0031462846E268BDE87040184770BD00BFD9
:10DC7C0000010020024611F0010004D003490B6A98
:10DC8C0013600B6203B90020704700BF002584505D
:10DC9C0010B4124AC0B2083032F81030D9051BD576
:10DCAC00C3F3432123F4F85322F81030002002F17F
:10DCBC000E0434F8023F13F4807F03D0C3F34323E4
:10DCCC00994209D001302028F3D1002342F8313099
